{
  "contractName": "CharityEvent",
  "abi": [
    {
      "constant": true,
      "inputs": [],
      "name": "name",
      "outputs": [
        {
          "name": "",
          "type": "string"
        }
      ],
      "payable": false,
      "stateMutability": "view",
      "type": "function"
    },
    {
      "constant": true,
      "inputs": [],
      "name": "payed",
      "outputs": [
        {
          "name": "",
          "type": "uint256"
        }
      ],
      "payable": false,
      "stateMutability": "view",
      "type": "function"
    },
    {
      "constant": true,
      "inputs": [],
      "name": "target",
      "outputs": [
        {
          "name": "",
          "type": "uint256"
        }
      ],
      "payable": false,
      "stateMutability": "view",
      "type": "function"
    },
    {
      "constant": true,
      "inputs": [],
      "name": "tags",
      "outputs": [
        {
          "name": "",
          "type": "bytes1"
        }
      ],
      "payable": false,
      "stateMutability": "view",
      "type": "function"
    },
    {
      "inputs": [
        {
          "name": "_name",
          "type": "string"
        },
        {
          "name": "_target",
          "type": "uint256"
        },
        {
          "name": "_payed",
          "type": "uint256"
        },
        {
          "name": "_tags",
          "type": "bytes1"
        }
      ],
      "payable": false,
      "stateMutability": "nonpayable",
      "type": "constructor"
    },
    {
      "constant": true,
      "inputs": [],
      "name": "isCharityEvent",
      "outputs": [
        {
          "name": "",
          "type": "bool"
        }
      ],
      "payable": false,
      "stateMutability": "pure",
      "type": "function"
    }
  ],
  "bytecode": "0x6060604052341561000f57600080fd5b6040516105813803806105818339810160405280805182019190602001805190602001909190805190602001909190805190602001909190505060008311151561005857600080fd5b6000821015151561006857600080fd5b73__Tools_________________________________63a45f379e856000604051602001526040518263ffffffff167c01000000000000000000000000000000000000000000000000000000000281526004018080602001828103825283818151815260200191508051906020019080838360005b838110156100f75780820151818401526020810190506100dc565b50505050905090810190601f1680156101245780820380516001836020036101000a031916815260200191505b509250505060206040518083038186803b151561014057600080fd5b6102c65a03f4151561015157600080fd5b5050506040518051905015151561016757600080fd5b836000908051906020019061017d9291906101d0565b50826001819055508160028190555080600360006101000a81548160ff02191690837f01000000000000000000000000000000000000000000000000000000000000009004021790555050505050610275565b828054600181600116156101000203166002900490600052602060002090601f016020900481019282601f1061021157805160ff191683800117855561023f565b8280016001018555821561023f579182015b8281111561023e578251825591602001919060010190610223565b5b50905061024c9190610250565b5090565b61027291905b8082111561026e576000816000905550600101610256565b5090565b90565b6102fd806102846000396000f30060606040526004361061006d576000357c0100000000000000000000000000000000000000000000000000000000900463ffffffff16806306fdde031461007257806356e4bc1f14610100578063d432989914610129578063d4b8399214610156578063de6b7e091461017f575b600080fd5b341561007d57600080fd5b6100856101ec565b6040518080602001828103825283818151815260200191508051906020019080838360005b838110156100c55780820151818401526020810190506100aa565b50505050905090810190601f1680156100f25780820380516001836020036101000a031916815260200191505b509250505060405180910390f35b341561010b57600080fd5b61011361028a565b6040518082815260200191505060405180910390f35b341561013457600080fd5b61013c610290565b604051808215151515815260200191505060405180910390f35b341561016157600080fd5b610169610299565b6040518082815260200191505060405180910390f35b341561018a57600080fd5b61019261029f565b60405180827effffffffffffffffffffffffffffffffffffffffffffffffffffffffffffff19167effffffffffffffffffffffffffffffffffffffffffffffffffffffffffffff1916815260200191505060405180910390f35b60008054600181600116156101000203166002900480601f0160208091040260200160405190810160405280929190818152602001828054600181600116156101000203166002900480156102825780601f1061025757610100808354040283529160200191610282565b820191906000526020600020905b81548152906001019060200180831161026557829003601f168201915b505050505081565b60025481565b60006001905090565b60015481565b600360009054906101000a90047f010000000000000000000000000000000000000000000000000000000000000002815600a165627a7a72305820cf5218d5f607505f5097b3a1925119107f48d325a424a399cebe49e881936f980029",
  "source": "pragma solidity ^0.4.17;\r\n\r\nimport \"./lib/Tools.sol\";\r\nimport \"./OrganizationInterface.sol\";\r\n\r\ncontract CharityEvent {\r\n\r\n    // name of event\r\n    string public name;\r\n\r\n    // how much funds is required\r\n    uint public target;\r\n\r\n    // how much funds payed to needy\r\n    uint public payed;\r\n\r\n    bytes1 public tags;\r\n\r\n    function CharityEvent(string _name, uint _target, uint _payed, bytes1 _tags) public {\r\n        require(_target > 0);\r\n        require(_payed >= 0);\r\n        require(!Tools.isEmptyString(_name));\r\n\r\n        name = _name;\r\n        target = _target;\r\n        payed = _payed;\r\n        tags = _tags;\r\n    }\r\n\r\n    // check that contract is charity event contract\r\n    function isCharityEvent() pure external returns (bool) {\r\n        return true;\r\n    }\r\n\r\n\r\n}\r\n",
  "sourcePath": "C:\\NodeJS\\gitHub\\oc_client\\contracts\\app\\CharityEvent.sol",
  "compiler": {
    "name": "solc",
    "version": "0.4.19+commit.c4cbbb05.Emscripten.clang"
  },
  "schemaVersion": "1.0.1",
  "updatedAt": "2018-03-01T12:03:09.892Z"
}