{
  "contractName": "Employee",
  "abi": [
    {
      "constant": true,
      "inputs": [],
      "name": "firstName",
      "outputs": [
        {
          "name": "",
          "type": "string"
        }
      ],
      "payable": false,
      "stateMutability": "view",
      "type": "function"
    },
    {
      "constant": true,
      "inputs": [],
      "name": "lastName",
      "outputs": [
        {
          "name": "",
          "type": "string"
        }
      ],
      "payable": false,
      "stateMutability": "view",
      "type": "function"
    },
    {
      "inputs": [
        {
          "name": "_firstName",
          "type": "string"
        },
        {
          "name": "_lastName",
          "type": "string"
        }
      ],
      "payable": false,
      "stateMutability": "nonpayable",
      "type": "constructor"
    }
  ],
  "bytecode": "0x6060604052341561000f57600080fd5b6040516105f03803806105f08339810160405280805182019190602001805182019190505073__Tools_________________________________63a45f379e836000604051602001526040518263ffffffff167c01000000000000000000000000000000000000000000000000000000000281526004018080602001828103825283818151815260200191508051906020019080838360005b838110156100c35780820151818401526020810190506100a8565b50505050905090810190601f1680156100f05780820380516001836020036101000a031916815260200191505b509250505060206040518083038186803b151561010c57600080fd5b6102c65a03f4151561011d57600080fd5b5050506040518051905015151561013357600080fd5b73__Tools_________________________________63a45f379e826000604051602001526040518263ffffffff167c01000000000000000000000000000000000000000000000000000000000281526004018080602001828103825283818151815260200191508051906020019080838360005b838110156101c25780820151818401526020810190506101a7565b50505050905090810190601f1680156101ef5780820380516001836020036101000a031916815260200191505b509250505060206040518083038186803b151561020b57600080fd5b6102c65a03f4151561021c57600080fd5b5050506040518051905015151561023257600080fd5b8160009080519060200190610248929190610267565b50806001908051906020019061025f929190610267565b50505061030c565b828054600181600116156101000203166002900490600052602060002090601f016020900481019282601f106102a857805160ff19168380011785556102d6565b828001600101855582156102d6579182015b828111156102d55782518255916020019190600101906102ba565b5b5090506102e391906102e7565b5090565b61030991905b808211156103055760008160009055506001016102ed565b5090565b90565b6102d58061031b6000396000f30060606040526004361061004c576000357c0100000000000000000000000000000000000000000000000000000000900463ffffffff1680634589fe0c146100515780639ab03dcb146100df575b600080fd5b341561005c57600080fd5b61006461016d565b6040518080602001828103825283818151815260200191508051906020019080838360005b838110156100a4578082015181840152602081019050610089565b50505050905090810190601f1680156100d15780820380516001836020036101000a031916815260200191505b509250505060405180910390f35b34156100ea57600080fd5b6100f261020b565b6040518080602001828103825283818151815260200191508051906020019080838360005b83811015610132578082015181840152602081019050610117565b50505050905090810190601f16801561015f5780820380516001836020036101000a031916815260200191505b509250505060405180910390f35b60008054600181600116156101000203166002900480601f0160208091040260200160405190810160405280929190818152602001828054600181600116156101000203166002900480156102035780601f106101d857610100808354040283529160200191610203565b820191906000526020600020905b8154815290600101906020018083116101e657829003601f168201915b505050505081565b60018054600181600116156101000203166002900480601f0160208091040260200160405190810160405280929190818152602001828054600181600116156101000203166002900480156102a15780601f10610276576101008083540402835291602001916102a1565b820191906000526020600020905b81548152906001019060200180831161028457829003601f168201915b5050505050815600a165627a7a7230582053a9e83dd9c757d3b0eadaef4a6c41e83efea3e57eaef68b8aaf4ea9982d44400029",
  "deployedBytecode": "0x60606040526004361061004c576000357c0100000000000000000000000000000000000000000000000000000000900463ffffffff1680634589fe0c146100515780639ab03dcb146100df575b600080fd5b341561005c57600080fd5b61006461016d565b6040518080602001828103825283818151815260200191508051906020019080838360005b838110156100a4578082015181840152602081019050610089565b50505050905090810190601f1680156100d15780820380516001836020036101000a031916815260200191505b509250505060405180910390f35b34156100ea57600080fd5b6100f261020b565b6040518080602001828103825283818151815260200191508051906020019080838360005b83811015610132578082015181840152602081019050610117565b50505050905090810190601f16801561015f5780820380516001836020036101000a031916815260200191505b509250505060405180910390f35b60008054600181600116156101000203166002900480601f0160208091040260200160405190810160405280929190818152602001828054600181600116156101000203166002900480156102035780601f106101d857610100808354040283529160200191610203565b820191906000526020600020905b8154815290600101906020018083116101e657829003601f168201915b505050505081565b60018054600181600116156101000203166002900480601f0160208091040260200160405190810160405280929190818152602001828054600181600116156101000203166002900480156102a15780601f10610276576101008083540402835291602001916102a1565b820191906000526020600020905b81548152906001019060200180831161028457829003601f168201915b5050505050815600a165627a7a7230582053a9e83dd9c757d3b0eadaef4a6c41e83efea3e57eaef68b8aaf4ea9982d44400029",
  "source": "pragma solidity ^0.4.17;\r\n\r\nimport \"./lib/Tools.sol\";\r\n\r\ncontract Employee {\r\n\r\n    string public firstName;\r\n    string public lastName;\r\n\r\n    function Employee(string _firstName, string _lastName) public {\r\n        require(!Tools.isEmptyString(_firstName));\r\n        require(!Tools.isEmptyString(_lastName));\r\n\r\n        firstName = _firstName;\r\n        lastName = _lastName;\r\n    }\r\n}\r\n",
  "sourcePath": "C:\\NodeJS\\gitHub\\oc_client\\contracts\\app\\Employee.sol",
  "compiler": {
    "name": "solc",
    "version": "0.4.19+commit.c4cbbb05.Emscripten.clang"
  },
  "schemaVersion": "1.0.1",
  "updatedAt": "2018-02-28T13:42:54.512Z"
}