{
  "contractName": "IncomingDonation",
  "abi": [
    {
      "constant": true,
      "inputs": [],
      "name": "note",
      "outputs": [
        {
          "name": "",
          "type": "string"
        }
      ],
      "payable": false,
      "stateMutability": "view",
      "type": "function"
    },
    {
      "constant": true,
      "inputs": [],
      "name": "realWorldIdentifier",
      "outputs": [
        {
          "name": "",
          "type": "string"
        }
      ],
      "payable": false,
      "stateMutability": "view",
      "type": "function"
    },
    {
      "constant": true,
      "inputs": [],
      "name": "tags",
      "outputs": [
        {
          "name": "",
          "type": "bytes1"
        }
      ],
      "payable": false,
      "stateMutability": "view",
      "type": "function"
    },
    {
      "constant": true,
      "inputs": [],
      "name": "token",
      "outputs": [
        {
          "name": "",
          "type": "address"
        }
      ],
      "payable": false,
      "stateMutability": "view",
      "type": "function"
    },
    {
      "inputs": [
        {
          "name": "_token",
          "type": "address"
        },
        {
          "name": "_realWorldIdentifier",
          "type": "string"
        },
        {
          "name": "_note",
          "type": "string"
        },
        {
          "name": "_tags",
          "type": "bytes1"
        }
      ],
      "payable": false,
      "stateMutability": "nonpayable",
      "type": "constructor"
    },
    {
      "anonymous": false,
      "inputs": [
        {
          "indexed": true,
          "name": "donation",
          "type": "address"
        },
        {
          "indexed": true,
          "name": "charityEvent",
          "type": "address"
        },
        {
          "indexed": true,
          "name": "who",
          "type": "address"
        },
        {
          "indexed": false,
          "name": "amount",
          "type": "uint256"
        }
      ],
      "name": "FundsMovedToCharityEvent",
      "type": "event"
    },
    {
      "constant": false,
      "inputs": [
        {
          "name": "_charityEvent",
          "type": "address"
        },
        {
          "name": "_amount",
          "type": "uint256"
        }
      ],
      "name": "moveToCharityEvent",
      "outputs": [],
      "payable": false,
      "stateMutability": "nonpayable",
      "type": "function"
    },
    {
      "constant": true,
      "inputs": [
        {
          "name": "donationTags",
          "type": "bytes1"
        },
        {
          "name": "eventTags",
          "type": "bytes1"
        }
      ],
      "name": "validateTags",
      "outputs": [
        {
          "name": "",
          "type": "bool"
        }
      ],
      "payable": false,
      "stateMutability": "view",
      "type": "function"
    },
    {
      "constant": true,
      "inputs": [],
      "name": "isIncomingDonation",
      "outputs": [
        {
          "name": "",
          "type": "bool"
        }
      ],
      "payable": false,
      "stateMutability": "pure",
      "type": "function"
    }
  ],
  "bytecode": "0x606060405260007f010000000000000000000000000000000000000000000000000000000000000002600260006101000a81548160ff02191690837f010000000000000000000000000000000000000000000000000000000000000090040217905550341561006d57600080fd5b604051610a4a380380610a4a83398101604052808051906020019091908051820191906020018051820191906020018051906020019091905050600073ffffffffffffffffffffffffffffffffffffffff168473ffffffffffffffffffffffffffffffffffffffff16141515156100e357600080fd5b836000806101000a81548173ffffffffffffffffffffffffffffffffffffffff021916908373ffffffffffffffffffffffffffffffffffffffff1602179055508260019080519060200190610139929190610195565b508160039080519060200190610150929190610195565b5080600260016101000a81548160ff02191690837f0100000000000000000000000000000000000000000000000000000000000000900402179055505050505061023a565b828054600181600116156101000203166002900490600052602060002090601f016020900481019282601f106101d657805160ff1916838001178555610204565b82800160010185558215610204579182015b828111156102035782518255916020019190600101906101e8565b5b5090506102119190610215565b5090565b61023791905b8082111561023357600081600090555060010161021b565b5090565b90565b610801806102496000396000f300606060405260043610610083576000357c0100000000000000000000000000000000000000000000000000000000900463ffffffff16806326d111f5146100885780634fc42c6a146101165780635614167614610143578063b52e6a92146101d1578063b9a4576714610259578063de6b7e091461029b578063fc0c546a14610308575b600080fd5b341561009357600080fd5b61009b61035d565b6040518080602001828103825283818151815260200191508051906020019080838360005b838110156100db5780820151818401526020810190506100c0565b50505050905090810190601f1680156101085780820380516001836020036101000a031916815260200191505b509250505060405180910390f35b341561012157600080fd5b6101296103fb565b604051808215151515815260200191505060405180910390f35b341561014e57600080fd5b610156610404565b6040518080602001828103825283818151815260200191508051906020019080838360005b8381101561019657808201518184015260208101905061017b565b50505050905090810190601f1680156101c35780820380516001836020036101000a031916815260200191505b509250505060405180910390f35b34156101dc57600080fd5b61023f60048080357effffffffffffffffffffffffffffffffffffffffffffffffffffffffffffff19169060200190919080357effffffffffffffffffffffffffffffffffffffffffffffffffffffffffffff19169060200190919050506104a2565b604051808215151515815260200191505060405180910390f35b341561026457600080fd5b610299600480803573ffffffffffffffffffffffffffffffffffffffff16906020019091908035906020019091905050610523565b005b34156102a657600080fd5b6102ae61077e565b60405180827effffffffffffffffffffffffffffffffffffffffffffffffffffffffffffff19167effffffffffffffffffffffffffffffffffffffffffffffffffffffffffffff1916815260200191505060405180910390f35b341561031357600080fd5b61031b6107b0565b604051808273ffffffffffffffffffffffffffffffffffffffff1673ffffffffffffffffffffffffffffffffffffffff16815260200191505060405180910390f35b60038054600181600116156101000203166002900480601f0160208091040260200160405190810160405280929190818152602001828054600181600116156101000203166002900480156103f35780601f106103c8576101008083540402835291602001916103f3565b820191906000526020600020905b8154815290600101906020018083116103d657829003601f168201915b505050505081565b60006001905090565b60018054600181600116156101000203166002900480601f01602080910402602001604051908101604052809291908181526020018280546001816001161561010002031660029004801561049a5780601f1061046f5761010080835404028352916020019161049a565b820191906000526020600020905b81548152906001019060200180831161047d57829003601f168201915b505050505081565b6000600260009054906101000a90047f0100000000000000000000000000000000000000000000000000000000000000027effffffffffffffffffffffffffffffffffffffffffffffffffffffffffffff19168284167effffffffffffffffffffffffffffffffffffffffffffffffffffffffffffff191611905092915050565b6000808211151561053357600080fd5b8290508073ffffffffffffffffffffffffffffffffffffffff1663d43298996000604051602001526040518163ffffffff167c0100000000000000000000000000000000000000000000000000000000028152600401602060405180830381600087803b15156105a257600080fd5b6102c65a03f115156105b357600080fd5b5050506040518051905015156105c857600080fd5b610686600260019054906101000a90047f0100000000000000000000000000000000000000000000000000000000000000028273ffffffffffffffffffffffffffffffffffffffff1663de6b7e096000604051602001526040518163ffffffff167c0100000000000000000000000000000000000000000000000000000000028152600401602060405180830381600087803b151561066657600080fd5b6102c65a03f1151561067757600080fd5b505050604051805190506104a2565b151561069157600080fd5b6000809054906101000a900473ffffffffffffffffffffffffffffffffffffffff1673ffffffffffffffffffffffffffffffffffffffff1663a9059cbb84846000604051602001526040518363ffffffff167c0100000000000000000000000000000000000000000000000000000000028152600401808373ffffffffffffffffffffffffffffffffffffffff1673ffffffffffffffffffffffffffffffffffffffff16815260200182815260200192505050602060405180830381600087803b151561075d57600080fd5b6102c65a03f1151561076e57600080fd5b5050506040518051905050505050565b600260019054906101000a90047f01000000000000000000000000000000000000000000000000000000000000000281565b6000809054906101000a900473ffffffffffffffffffffffffffffffffffffffff16815600a165627a7a72305820449f6d24e4820ad5758cee06a1f39aea26a463a80e475ab95ef639151a075a7b0029",
  "source": "pragma solidity ^0.4.17;\r\n\r\nimport '../OpenCharityToken.sol';\r\nimport './CharityEvent.sol';\r\n\r\ncontract IncomingDonation {\r\n\r\n    OpenCharityToken public token;\r\n\r\n    // this field helps to identify and link fiat payment\r\n    // with entity inside the OpenCharity\r\n    // for example bank transaction ID\r\n    string public realWorldIdentifier;\r\n\r\n    // 0 in bytes format\r\n    bytes1 zeroBytes = 0x00;\r\n\r\n    // tags assigned to donation\r\n    bytes1 public tags;\r\n\r\n    // optional note. can be anything or empty\r\n    string public note;\r\n\r\n    /**\r\n     * @dev Events emitted when donation funds moved to charity event\r\n     * @param donation address of donation\r\n     * @param charityEvent address of target charity event\r\n     * @param who address which initiate transaction\r\n     * @param amount how much tokens moved\r\n     */\r\n    event FundsMovedToCharityEvent(address indexed donation, address indexed charityEvent, address indexed who, uint amount);\r\n\r\n\r\n\r\n    function IncomingDonation(address _token, string _realWorldIdentifier, string _note, bytes1 _tags) public {\r\n        require(_token != address(0x0));\r\n\r\n        token = OpenCharityToken(_token);\r\n\r\n        realWorldIdentifier = _realWorldIdentifier;\r\n        note = _note;\r\n        tags = _tags;\r\n    }\r\n\r\n    function moveToCharityEvent(address _charityEvent, uint _amount) public {\r\n        require(_amount > 0);\r\n\r\n        CharityEvent charityEvent = CharityEvent(_charityEvent);\r\n\r\n        require(charityEvent.isCharityEvent());\r\n\r\n        require(validateTags(tags, charityEvent.tags()));\r\n\r\n        token.transfer(_charityEvent, _amount);\r\n    }\r\n\r\n    /**\r\n     * @dev Compare target charity event and incoming donation tags\r\n     * returns true if at least one tag is the same\r\n     * @param donationTags tags of incoming donation\r\n     * @param eventTags tags of charity event\r\n     */\r\n    function validateTags(bytes1 donationTags, bytes1 eventTags) view public returns (bool)  {\r\n        return ( (donationTags & eventTags) > zeroBytes);\r\n    }\r\n\r\n    // check that contract is charity event contract\r\n    function isIncomingDonation() pure public returns (bool) {\r\n        return true;\r\n    }\r\n\r\n\r\n}\r\n",
  "sourcePath": "C:\\NodeJS\\gitHub\\oc_client\\contracts\\app\\IncomingDonation.sol",
  "compiler": {
    "name": "solc",
    "version": "0.4.19+commit.c4cbbb05.Emscripten.clang"
  },
  "schemaVersion": "1.0.1",
  "updatedAt": "2018-02-08T07:23:48.041Z"
}