{
  "contractName": "Organization",
  "abi": [
    {
      "constant": true,
      "inputs": [],
      "name": "name",
      "outputs": [
        {
          "name": "",
          "type": "string"
        }
      ],
      "payable": false,
      "stateMutability": "view",
      "type": "function"
    },
    {
      "constant": true,
      "inputs": [],
      "name": "incomingDonationCount",
      "outputs": [
        {
          "name": "",
          "type": "uint256"
        }
      ],
      "payable": false,
      "stateMutability": "view",
      "type": "function"
    },
    {
      "constant": true,
      "inputs": [
        {
          "name": "",
          "type": "address"
        }
      ],
      "name": "admins",
      "outputs": [
        {
          "name": "",
          "type": "bool"
        }
      ],
      "payable": false,
      "stateMutability": "view",
      "type": "function"
    },
    {
      "constant": true,
      "inputs": [],
      "name": "charityEventCount",
      "outputs": [
        {
          "name": "",
          "type": "uint256"
        }
      ],
      "payable": false,
      "stateMutability": "view",
      "type": "function"
    },
    {
      "constant": true,
      "inputs": [
        {
          "name": "",
          "type": "uint256"
        }
      ],
      "name": "incomingDonationIndex",
      "outputs": [
        {
          "name": "",
          "type": "address"
        }
      ],
      "payable": false,
      "stateMutability": "view",
      "type": "function"
    },
    {
      "constant": true,
      "inputs": [],
      "name": "employeeCount",
      "outputs": [
        {
          "name": "",
          "type": "uint256"
        }
      ],
      "payable": false,
      "stateMutability": "view",
      "type": "function"
    },
    {
      "constant": true,
      "inputs": [
        {
          "name": "",
          "type": "uint256"
        }
      ],
      "name": "employeeIndex",
      "outputs": [
        {
          "name": "",
          "type": "address"
        }
      ],
      "payable": false,
      "stateMutability": "view",
      "type": "function"
    },
    {
      "constant": true,
      "inputs": [
        {
          "name": "",
          "type": "uint256"
        }
      ],
      "name": "charityEventIndex",
      "outputs": [
        {
          "name": "",
          "type": "address"
        }
      ],
      "payable": false,
      "stateMutability": "view",
      "type": "function"
    },
    {
      "constant": true,
      "inputs": [
        {
          "name": "",
          "type": "address"
        }
      ],
      "name": "employees",
      "outputs": [
        {
          "name": "",
          "type": "bool"
        }
      ],
      "payable": false,
      "stateMutability": "view",
      "type": "function"
    },
    {
      "constant": true,
      "inputs": [
        {
          "name": "",
          "type": "address"
        }
      ],
      "name": "incomingDonations",
      "outputs": [
        {
          "name": "",
          "type": "bool"
        }
      ],
      "payable": false,
      "stateMutability": "view",
      "type": "function"
    },
    {
      "constant": true,
      "inputs": [
        {
          "name": "",
          "type": "address"
        }
      ],
      "name": "charityEvents",
      "outputs": [
        {
          "name": "",
          "type": "bool"
        }
      ],
      "payable": false,
      "stateMutability": "view",
      "type": "function"
    },
    {
      "inputs": [
        {
          "name": "_token",
          "type": "address"
        },
        {
          "name": "_admins",
          "type": "address[]"
        },
        {
          "name": "_name",
          "type": "string"
        }
      ],
      "payable": false,
      "stateMutability": "nonpayable",
      "type": "constructor"
    },
    {
      "anonymous": false,
      "inputs": [
        {
          "indexed": true,
          "name": "organization",
          "type": "address"
        },
        {
          "indexed": false,
          "name": "employee",
          "type": "address"
        }
      ],
      "name": "EmployeeAdded",
      "type": "event"
    },
    {
      "anonymous": false,
      "inputs": [
        {
          "indexed": true,
          "name": "organization",
          "type": "address"
        },
        {
          "indexed": false,
          "name": "charityEvent",
          "type": "address"
        }
      ],
      "name": "CharityEventAdded",
      "type": "event"
    },
    {
      "anonymous": false,
      "inputs": [
        {
          "indexed": true,
          "name": "organization",
          "type": "address"
        },
        {
          "indexed": false,
          "name": "incomingDonation",
          "type": "address"
        },
        {
          "indexed": true,
          "name": "who",
          "type": "address"
        },
        {
          "indexed": false,
          "name": "amount",
          "type": "uint256"
        }
      ],
      "name": "IncomingDonationAdded",
      "type": "event"
    },
    {
      "constant": false,
      "inputs": [
        {
          "name": "_firstName",
          "type": "string"
        },
        {
          "name": "_lastName",
          "type": "string"
        }
      ],
      "name": "addEmployee",
      "outputs": [
        {
          "name": "",
          "type": "address"
        }
      ],
      "payable": false,
      "stateMutability": "nonpayable",
      "type": "function"
    },
    {
      "constant": false,
      "inputs": [
        {
          "name": "_name",
          "type": "string"
        },
        {
          "name": "_target",
          "type": "uint256"
        },
        {
          "name": "_payed",
          "type": "uint256"
        },
        {
          "name": "_tags",
          "type": "bytes1"
        }
      ],
      "name": "addCharityEvent",
      "outputs": [
        {
          "name": "",
          "type": "address"
        }
      ],
      "payable": false,
      "stateMutability": "nonpayable",
      "type": "function"
    },
    {
      "constant": false,
      "inputs": [
        {
          "name": "_realWorldIdentifier",
          "type": "string"
        },
        {
          "name": "_amount",
          "type": "uint256"
        },
        {
          "name": "_note",
          "type": "string"
        },
        {
          "name": "_tags",
          "type": "bytes1"
        }
      ],
      "name": "setIncomingDonation",
      "outputs": [
        {
          "name": "",
          "type": "address"
        }
      ],
      "payable": false,
      "stateMutability": "nonpayable",
      "type": "function"
    },
    {
      "constant": true,
      "inputs": [],
      "name": "isAdmin",
      "outputs": [
        {
          "name": "",
          "type": "bool"
        }
      ],
      "payable": false,
      "stateMutability": "view",
      "type": "function"
    },
    {
      "constant": false,
      "inputs": [
        {
          "name": "admin",
          "type": "address"
        },
        {
          "name": "value",
          "type": "bool"
        }
      ],
      "name": "setAdmin",
      "outputs": [],
      "payable": false,
      "stateMutability": "nonpayable",
      "type": "function"
    }
  ],
  "bytecode": "0x6060604052600060055560006008556000600b5534156200001f57600080fd5b60405162002cd738038062002cd78339810160405280805190602001909190805182019190602001805182019190505060008083511115156200006157600080fd5b600090505b82518110156200014357600073ffffffffffffffffffffffffffffffffffffffff1683828151811015156200009757fe5b9060200190602002015173ffffffffffffffffffffffffffffffffffffffff1614151515620000c557600080fd5b6001600260008584815181101515620000da57fe5b9060200190602002015173ffffffffffffffffffffffffffffffffffffffff1673ffffffffffffffffffffffffffffffffffffffff16815260200190815260200160002060006101000a81548160ff021916908315150217905550808060010191505062000066565b81600190805190602001906200015b929190620001a6565b50836000806101000a81548173ffffffffffffffffffffffffffffffffffffffff021916908373ffffffffffffffffffffffffffffffffffffffff1602179055505050505062000255565b828054600181600116156101000203166002900490600052602060002090601f016020900481019282601f10620001e957805160ff19168380011785556200021a565b828001600101855582156200021a579182015b8281111562000219578251825591602001919060010190620001fc565b5b5090506200022991906200022d565b5090565b6200025291905b808211156200024e57600081600090555060010162000234565b5090565b90565b612a7280620002656000396000f300606060405260043610620000f7576000357c0100000000000000000000000000000000000000000000000000000000900463ffffffff16806306fdde0314620000fc5780630def5d7b14620001905780633e9231cd14620001bc578063429b62e5146200029f5780634b0bddd214620002f35780635cc577d9146200033a5780638ccc66f214620004175780638d97d83b14620004435780639047bf5814620004a9578063a7fb79a914620004d5578063ab78ca6f146200053b578063b6db75a014620005a1578063bd1a883814620005d1578063d067894714620006e8578063e4ef6311146200073c578063f0a5cdd51462000790575b600080fd5b34156200010857600080fd5b62000112620007e4565b6040518080602001828103825283818151815260200191508051906020019080838360005b838110156200015457808201518184015260208101905062000137565b50505050905090810190601f168015620001825780820380516001836020036101000a031916815260200191505b509250505060405180910390f35b34156200019c57600080fd5b620001a662000886565b6040518082815260200191505060405180910390f35b3415620001c857600080fd5b6200025d600480803590602001908201803590602001908080601f0160208091040260200160405190810160405280939291908181526020018383808284378201915050505050509190803590602001908201803590602001908080601f016020809104026020016040519081016040528093929190818152602001838380828437820191505050505050919050506200088c565b604051808273ffffffffffffffffffffffffffffffffffffffff1673ffffffffffffffffffffffffffffffffffffffff16815260200191505060405180910390f35b3415620002ab57600080fd5b620002d9600480803573ffffffffffffffffffffffffffffffffffffffff1690602001909190505062000b30565b604051808215151515815260200191505060405180910390f35b3415620002ff57600080fd5b62000338600480803573ffffffffffffffffffffffffffffffffffffffff16906020019091908035151590602001909190505062000b50565b005b34156200034657600080fd5b620003d5600480803590602001908201803590602001908080601f016020809104026020016040519081016040528093929190818152602001838380828437820191505050505050919080359060200190919080359060200190919080357effffffffffffffffffffffffffffffffffffffffffffffffffffffffffffff191690602001909190505062000c04565b604051808273ffffffffffffffffffffffffffffffffffffffff1673ffffffffffffffffffffffffffffffffffffffff16815260200191505060405180910390f35b34156200042357600080fd5b6200042d62000e96565b6040518082815260200191505060405180910390f35b34156200044f57600080fd5b62000467600480803590602001909190505062000e9c565b604051808273ffffffffffffffffffffffffffffffffffffffff1673ffffffffffffffffffffffffffffffffffffffff16815260200191505060405180910390f35b3415620004b557600080fd5b620004bf62000ecf565b6040518082815260200191505060405180910390f35b3415620004e157600080fd5b620004f9600480803590602001909190505062000ed5565b604051808273ffffffffffffffffffffffffffffffffffffffff1673ffffffffffffffffffffffffffffffffffffffff16815260200191505060405180910390f35b34156200054757600080fd5b6200055f600480803590602001909190505062000f08565b604051808273ffffffffffffffffffffffffffffffffffffffff1673ffffffffffffffffffffffffffffffffffffffff16815260200191505060405180910390f35b3415620005ad57600080fd5b620005b762000f3b565b604051808215151515815260200191505060405180910390f35b3415620005dd57600080fd5b620006a6600480803590602001908201803590602001908080601f0160208091040260200160405190810160405280939291908181526020018383808284378201915050505050509190803590602001909190803590602001908201803590602001908080601f016020809104026020016040519081016040528093929190818152602001838380828437820191505050505050919080357effffffffffffffffffffffffffffffffffffffffffffffffffffffffffffff191690602001909190505062000f8f565b604051808273ffffffffffffffffffffffffffffffffffffffff1673ffffffffffffffffffffffffffffffffffffffff16815260200191505060405180910390f35b3415620006f457600080fd5b62000722600480803573ffffffffffffffffffffffffffffffffffffffff16906020019091905050620010ee565b604051808215151515815260200191505060405180910390f35b34156200074857600080fd5b62000776600480803573ffffffffffffffffffffffffffffffffffffffff169060200190919050506200110e565b604051808215151515815260200191505060405180910390f35b34156200079c57600080fd5b620007ca600480803573ffffffffffffffffffffffffffffffffffffffff169060200190919050506200112e565b604051808215151515815260200191505060405180910390f35b60018054600181600116156101000203166002900480601f0160208091040260200160405190810160405280929190818152602001828054600181600116156101000203166002900480156200087e5780601f1062000852576101008083540402835291602001916200087e565b820191906000526020600020905b8154815290600101906020018083116200086057829003601f168201915b505050505081565b600b5481565b600080600260003373ffffffffffffffffffffffffffffffffffffffff1673ffffffffffffffffffffffffffffffffffffffff16815260200190815260200160002060009054906101000a900460ff161515620008e857600080fd5b8383620008f46200145b565b808060200180602001838103835285818151815260200191508051906020019080838360005b83811015620009375780820151818401526020810190506200091a565b50505050905090810190601f168015620009655780820380516001836020036101000a031916815260200191505b50838103825284818151815260200191508051906020019080838360005b83811015620009a057808201518184015260208101905062000983565b50505050905090810190601f168015620009ce5780820380516001836020036101000a031916815260200191505b50945050505050604051809103906000f0801515620009ec57600080fd5b90508060046000600554815260200190815260200160002060006101000a81548173ffffffffffffffffffffffffffffffffffffffff021916908373ffffffffffffffffffffffffffffffffffffffff1602179055506001600360008373ffffffffffffffffffffffffffffffffffffffff1673ffffffffffffffffffffffffffffffffffffffff16815260200190815260200160002060006101000a81548160ff0219169083151502179055506005600081548092919060010191905055503073ffffffffffffffffffffffffffffffffffffffff167fd41127bc1ef851a201f5a1dfbd1e1c6476563f6d0379f2ad3c63598549ed420882604051808273ffffffffffffffffffffffffffffffffffffffff1673ffffffffffffffffffffffffffffffffffffffff16815260200191505060405180910390a28091505092915050565b60026020528060005260406000206000915054906101000a900460ff1681565b600260003373ffffffffffffffffffffffffffffffffffffffff1673ffffffffffffffffffffffffffffffffffffffff16815260200190815260200160002060009054906101000a900460ff16151562000ba957600080fd5b80600260008473ffffffffffffffffffffffffffffffffffffffff1673ffffffffffffffffffffffffffffffffffffffff16815260200190815260200160002060006101000a81548160ff0219169083151502179055505050565b600080600260003373ffffffffffffffffffffffffffffffffffffffff1673ffffffffffffffffffffffffffffffffffffffff16815260200190815260200160002060009054906101000a900460ff16151562000c6057600080fd5b8585858562000c6e6200146c565b8080602001858152602001848152602001837effffffffffffffffffffffffffffffffffffffffffffffffffffffffffffff19167effffffffffffffffffffffffffffffffffffffffffffffffffffffffffffff19168152602001828103825286818151815260200191508051906020019080838360005b8381101562000d0357808201518184015260208101905062000ce6565b50505050905090810190601f16801562000d315780820380516001836020036101000a031916815260200191505b5095505050505050604051809103906000f080151562000d5057600080fd5b90508060076000600854815260200190815260200160002060006101000a81548173ffffffffffffffffffffffffffffffffffffffff021916908373ffffffffffffffffffffffffffffffffffffffff1602179055506001600660008373ffffffffffffffffffffffffffffffffffffffff1673ffffffffffffffffffffffffffffffffffffffff16815260200190815260200160002060006101000a81548160ff0219169083151502179055506008600081548092919060010191905055503073ffffffffffffffffffffffffffffffffffffffff167ff50ca7de500c2b14bb46c061ad2666e1d87be808b1cc626181e358a5441ae43e82604051808273ffffffffffffffffffffffffffffffffffffffff1673ffffffffffffffffffffffffffffffffffffffff16815260200191505060405180910390a280915050949350505050565b60085481565b600a6020528060005260406000206000915054906101000a900473ffffffffffffffffffffffffffffffffffffffff1681565b60055481565b60046020528060005260406000206000915054906101000a900473ffffffffffffffffffffffffffffffffffffffff1681565b60076020528060005260406000206000915054906101000a900473ffffffffffffffffffffffffffffffffffffffff1681565b6000600260003373ffffffffffffffffffffffffffffffffffffffff1673ffffffffffffffffffffffffffffffffffffffff16815260200190815260200160002060009054906101000a900460ff16905090565b600080600260003373ffffffffffffffffffffffffffffffffffffffff1673ffffffffffffffffffffffffffffffffffffffff16815260200190815260200160002060009054906101000a900460ff16151562000feb57600080fd5b62000ff9868686866200114e565b90506000809054906101000a900473ffffffffffffffffffffffffffffffffffffffff1673ffffffffffffffffffffffffffffffffffffffff166340c10f1982876000604051602001526040518363ffffffff167c0100000000000000000000000000000000000000000000000000000000028152600401808373ffffffffffffffffffffffffffffffffffffffff1673ffffffffffffffffffffffffffffffffffffffff16815260200182815260200192505050602060405180830381600087803b1515620010c857600080fd5b6102c65a03f11515620010da57600080fd5b505050604051805190505050949350505050565b60036020528060005260406000206000915054906101000a900460ff1681565b60096020528060005260406000206000915054906101000a900460ff1681565b60066020528060005260406000206000915054906101000a900460ff1681565b6000806000809054906101000a900473ffffffffffffffffffffffffffffffffffffffff16868585620011806200147d565b808573ffffffffffffffffffffffffffffffffffffffff1673ffffffffffffffffffffffffffffffffffffffff1681526020018060200180602001847effffffffffffffffffffffffffffffffffffffffffffffffffffffffffffff19167effffffffffffffffffffffffffffffffffffffffffffffffffffffffffffff19168152602001838103835286818151815260200191508051906020019080838360005b838110156200123f57808201518184015260208101905062001222565b50505050905090810190601f1680156200126d5780820380516001836020036101000a031916815260200191505b50838103825285818151815260200191508051906020019080838360005b83811015620012a85780820151818401526020810190506200128b565b50505050905090810190601f168015620012d65780820380516001836020036101000a031916815260200191505b509650505050505050604051809103906000f0801515620012f657600080fd5b905080600a6000600b54815260200190815260200160002060006101000a81548173ffffffffffffffffffffffffffffffffffffffff021916908373ffffffffffffffffffffffffffffffffffffffff1602179055506001600960008373ffffffffffffffffffffffffffffffffffffffff1673ffffffffffffffffffffffffffffffffffffffff16815260200190815260200160002060006101000a81548160ff021916908315150217905550600b600081548092919060010191905055503373ffffffffffffffffffffffffffffffffffffffff163073ffffffffffffffffffffffffffffffffffffffff167f43ddc7d8740ab6ff6e5c45cc1273f51516040987aae2dca7d6f7dfdf240598888388604051808373ffffffffffffffffffffffffffffffffffffffff1673ffffffffffffffffffffffffffffffffffffffff1681526020018281526020019250505060405180910390a380915050949350505050565b6040516105f0806200148f83390190565b6040516105818062001a7f83390190565b604051610a4780620020008339019056006060604052341561000f57600080fd5b6040516105f03803806105f08339810160405280805182019190602001805182019190505073__Tools_________________________________63a45f379e836000604051602001526040518263ffffffff167c01000000000000000000000000000000000000000000000000000000000281526004018080602001828103825283818151815260200191508051906020019080838360005b838110156100c35780820151818401526020810190506100a8565b50505050905090810190601f1680156100f05780820380516001836020036101000a031916815260200191505b509250505060206040518083038186803b151561010c57600080fd5b6102c65a03f4151561011d57600080fd5b5050506040518051905015151561013357600080fd5b73__Tools_________________________________63a45f379e826000604051602001526040518263ffffffff167c01000000000000000000000000000000000000000000000000000000000281526004018080602001828103825283818151815260200191508051906020019080838360005b838110156101c25780820151818401526020810190506101a7565b50505050905090810190601f1680156101ef5780820380516001836020036101000a031916815260200191505b509250505060206040518083038186803b151561020b57600080fd5b6102c65a03f4151561021c57600080fd5b5050506040518051905015151561023257600080fd5b8160009080519060200190610248929190610267565b50806001908051906020019061025f929190610267565b50505061030c565b828054600181600116156101000203166002900490600052602060002090601f016020900481019282601f106102a857805160ff19168380011785556102d6565b828001600101855582156102d6579182015b828111156102d55782518255916020019190600101906102ba565b5b5090506102e391906102e7565b5090565b61030991905b808211156103055760008160009055506001016102ed565b5090565b90565b6102d58061031b6000396000f30060606040526004361061004c576000357c0100000000000000000000000000000000000000000000000000000000900463ffffffff1680634589fe0c146100515780639ab03dcb146100df575b600080fd5b341561005c57600080fd5b61006461016d565b6040518080602001828103825283818151815260200191508051906020019080838360005b838110156100a4578082015181840152602081019050610089565b50505050905090810190601f1680156100d15780820380516001836020036101000a031916815260200191505b509250505060405180910390f35b34156100ea57600080fd5b6100f261020b565b6040518080602001828103825283818151815260200191508051906020019080838360005b83811015610132578082015181840152602081019050610117565b50505050905090810190601f16801561015f5780820380516001836020036101000a031916815260200191505b509250505060405180910390f35b60008054600181600116156101000203166002900480601f0160208091040260200160405190810160405280929190818152602001828054600181600116156101000203166002900480156102035780601f106101d857610100808354040283529160200191610203565b820191906000526020600020905b8154815290600101906020018083116101e657829003601f168201915b505050505081565b60018054600181600116156101000203166002900480601f0160208091040260200160405190810160405280929190818152602001828054600181600116156101000203166002900480156102a15780601f10610276576101008083540402835291602001916102a1565b820191906000526020600020905b81548152906001019060200180831161028457829003601f168201915b5050505050815600a165627a7a7230582053a9e83dd9c757d3b0eadaef4a6c41e83efea3e57eaef68b8aaf4ea9982d444000296060604052341561000f57600080fd5b6040516105813803806105818339810160405280805182019190602001805190602001909190805190602001909190805190602001909190505060008311151561005857600080fd5b6000821015151561006857600080fd5b73__Tools_________________________________63a45f379e856000604051602001526040518263ffffffff167c01000000000000000000000000000000000000000000000000000000000281526004018080602001828103825283818151815260200191508051906020019080838360005b838110156100f75780820151818401526020810190506100dc565b50505050905090810190601f1680156101245780820380516001836020036101000a031916815260200191505b509250505060206040518083038186803b151561014057600080fd5b6102c65a03f4151561015157600080fd5b5050506040518051905015151561016757600080fd5b836000908051906020019061017d9291906101d0565b50826001819055508160028190555080600360006101000a81548160ff02191690837f01000000000000000000000000000000000000000000000000000000000000009004021790555050505050610275565b828054600181600116156101000203166002900490600052602060002090601f016020900481019282601f1061021157805160ff191683800117855561023f565b8280016001018555821561023f579182015b8281111561023e578251825591602001919060010190610223565b5b50905061024c9190610250565b5090565b61027291905b8082111561026e576000816000905550600101610256565b5090565b90565b6102fd806102846000396000f30060606040526004361061006d576000357c0100000000000000000000000000000000000000000000000000000000900463ffffffff16806306fdde031461007257806356e4bc1f14610100578063d432989914610129578063d4b8399214610156578063de6b7e091461017f575b600080fd5b341561007d57600080fd5b6100856101ec565b6040518080602001828103825283818151815260200191508051906020019080838360005b838110156100c55780820151818401526020810190506100aa565b50505050905090810190601f1680156100f25780820380516001836020036101000a031916815260200191505b509250505060405180910390f35b341561010b57600080fd5b61011361028a565b6040518082815260200191505060405180910390f35b341561013457600080fd5b61013c610290565b604051808215151515815260200191505060405180910390f35b341561016157600080fd5b610169610299565b6040518082815260200191505060405180910390f35b341561018a57600080fd5b61019261029f565b60405180827effffffffffffffffffffffffffffffffffffffffffffffffffffffffffffff19167effffffffffffffffffffffffffffffffffffffffffffffffffffffffffffff1916815260200191505060405180910390f35b60008054600181600116156101000203166002900480601f0160208091040260200160405190810160405280929190818152602001828054600181600116156101000203166002900480156102825780601f1061025757610100808354040283529160200191610282565b820191906000526020600020905b81548152906001019060200180831161026557829003601f168201915b505050505081565b60025481565b60006001905090565b60015481565b600360009054906101000a90047f010000000000000000000000000000000000000000000000000000000000000002815600a165627a7a72305820cf5218d5f607505f5097b3a1925119107f48d325a424a399cebe49e881936f98002960606040527f3000000000000000000000000000000000000000000000000000000000000000600260006101000a81548160ff02191690837f010000000000000000000000000000000000000000000000000000000000000090040217905550341561006a57600080fd5b604051610a47380380610a4783398101604052808051906020019091908051820191906020018051820191906020018051906020019091905050600073ffffffffffffffffffffffffffffffffffffffff168473ffffffffffffffffffffffffffffffffffffffff16141515156100e057600080fd5b836000806101000a81548173ffffffffffffffffffffffffffffffffffffffff021916908373ffffffffffffffffffffffffffffffffffffffff1602179055508260019080519060200190610136929190610192565b50816003908051906020019061014d929190610192565b5080600260016101000a81548160ff02191690837f01000000000000000000000000000000000000000000000000000000000000009004021790555050505050610237565b828054600181600116156101000203166002900490600052602060002090601f016020900481019282601f106101d357805160ff1916838001178555610201565b82800160010185558215610201579182015b828111156102005782518255916020019190600101906101e5565b5b50905061020e9190610212565b5090565b61023491905b80821115610230576000816000905550600101610218565b5090565b90565b610801806102466000396000f300606060405260043610610083576000357c0100000000000000000000000000000000000000000000000000000000900463ffffffff16806326d111f5146100885780634fc42c6a146101165780635614167614610143578063b52e6a92146101d1578063b9a4576714610259578063de6b7e091461029b578063fc0c546a14610308575b600080fd5b341561009357600080fd5b61009b61035d565b6040518080602001828103825283818151815260200191508051906020019080838360005b838110156100db5780820151818401526020810190506100c0565b50505050905090810190601f1680156101085780820380516001836020036101000a031916815260200191505b509250505060405180910390f35b341561012157600080fd5b6101296103fb565b604051808215151515815260200191505060405180910390f35b341561014e57600080fd5b610156610404565b6040518080602001828103825283818151815260200191508051906020019080838360005b8381101561019657808201518184015260208101905061017b565b50505050905090810190601f1680156101c35780820380516001836020036101000a031916815260200191505b509250505060405180910390f35b34156101dc57600080fd5b61023f60048080357effffffffffffffffffffffffffffffffffffffffffffffffffffffffffffff19169060200190919080357effffffffffffffffffffffffffffffffffffffffffffffffffffffffffffff19169060200190919050506104a2565b604051808215151515815260200191505060405180910390f35b341561026457600080fd5b610299600480803573ffffffffffffffffffffffffffffffffffffffff16906020019091908035906020019091905050610523565b005b34156102a657600080fd5b6102ae61077e565b60405180827effffffffffffffffffffffffffffffffffffffffffffffffffffffffffffff19167effffffffffffffffffffffffffffffffffffffffffffffffffffffffffffff1916815260200191505060405180910390f35b341561031357600080fd5b61031b6107b0565b604051808273ffffffffffffffffffffffffffffffffffffffff1673ffffffffffffffffffffffffffffffffffffffff16815260200191505060405180910390f35b60038054600181600116156101000203166002900480601f0160208091040260200160405190810160405280929190818152602001828054600181600116156101000203166002900480156103f35780601f106103c8576101008083540402835291602001916103f3565b820191906000526020600020905b8154815290600101906020018083116103d657829003601f168201915b505050505081565b60006001905090565b60018054600181600116156101000203166002900480601f01602080910402602001604051908101604052809291908181526020018280546001816001161561010002031660029004801561049a5780601f1061046f5761010080835404028352916020019161049a565b820191906000526020600020905b81548152906001019060200180831161047d57829003601f168201915b505050505081565b6000600260009054906101000a90047f0100000000000000000000000000000000000000000000000000000000000000027effffffffffffffffffffffffffffffffffffffffffffffffffffffffffffff19168284167effffffffffffffffffffffffffffffffffffffffffffffffffffffffffffff191611905092915050565b6000808211151561053357600080fd5b8290508073ffffffffffffffffffffffffffffffffffffffff1663d43298996000604051602001526040518163ffffffff167c0100000000000000000000000000000000000000000000000000000000028152600401602060405180830381600087803b15156105a257600080fd5b6102c65a03f115156105b357600080fd5b5050506040518051905015156105c857600080fd5b610686600260019054906101000a90047f0100000000000000000000000000000000000000000000000000000000000000028273ffffffffffffffffffffffffffffffffffffffff1663de6b7e096000604051602001526040518163ffffffff167c0100000000000000000000000000000000000000000000000000000000028152600401602060405180830381600087803b151561066657600080fd5b6102c65a03f1151561067757600080fd5b505050604051805190506104a2565b151561069157600080fd5b6000809054906101000a900473ffffffffffffffffffffffffffffffffffffffff1673ffffffffffffffffffffffffffffffffffffffff1663a9059cbb84846000604051602001526040518363ffffffff167c0100000000000000000000000000000000000000000000000000000000028152600401808373ffffffffffffffffffffffffffffffffffffffff1673ffffffffffffffffffffffffffffffffffffffff16815260200182815260200192505050602060405180830381600087803b151561075d57600080fd5b6102c65a03f1151561076e57600080fd5b5050506040518051905050505050565b600260019054906101000a90047f01000000000000000000000000000000000000000000000000000000000000000281565b6000809054906101000a900473ffffffffffffffffffffffffffffffffffffffff16815600a165627a7a723058207c2b96646f94cc9a75c95f3047eaf190b5a84718ae51614865297787cf16b3e70029a165627a7a72305820e1077614295aab262b5f4a355c8a1016bedc4aed173240861070afbda37921ad0029",
  "source": "pragma solidity ^0.4.17;\r\n\r\nimport \"./Employee.sol\";\r\nimport \"./CharityEvent.sol\";\r\nimport \"./IncomingDonation.sol\";\r\nimport \"../OpenCharityMintableToken.sol\";\r\n\r\n\r\ncontract Organization {\r\n    OpenCharityMintableToken token;\r\n\r\n    string public name;\r\n\r\n    // list of admins\r\n    mapping(address => bool) public admins;\r\n\r\n    // list of Employees\r\n    // additional mapping and counter provide iterability\r\n    mapping(address => bool) public employees;\r\n    mapping(uint => address) public employeeIndex;\r\n    uint public employeeCount = 0;\r\n    event EmployeeAdded(address indexed organization, address employee);\r\n\r\n    //list of CharityEvents\r\n    mapping(address => bool) public charityEvents;\r\n    mapping(uint => address) public charityEventIndex;\r\n    uint public charityEventCount = 0;\r\n    event CharityEventAdded(address indexed organization, address charityEvent);\r\n\r\n\r\n    //list of IncomingDonations\r\n    mapping(address => bool) public incomingDonations;\r\n    mapping(uint => address) public incomingDonationIndex;\r\n    uint public incomingDonationCount = 0;\r\n    event IncomingDonationAdded(address indexed organization, address incomingDonation, address indexed who, uint amount);\r\n\r\n\r\n\r\n    function Organization(OpenCharityMintableToken _token, address[] _admins, string _name) public {\r\n        // at least one admin is required\r\n        require(_admins.length > 0);\r\n\r\n        // check that admins addresses array doesn't have empty ones\r\n        for(uint i = 0; i < _admins.length; i++) {\r\n            require(_admins[i] != address(0x0));\r\n            admins[_admins[i]] = true;\r\n        }\r\n\r\n        name = _name;\r\n        token = OpenCharityMintableToken(_token);\r\n    }\r\n\r\n\r\n    /**\r\n   * @dev Add new employee to Organization\r\n   */\r\n    function addEmployee(string _firstName, string _lastName) public onlyAdmin returns(address) {\r\n        // create a new employee\r\n        Employee employee = new Employee(_firstName, _lastName);\r\n\r\n        // add employee to employees list\r\n        employeeIndex[employeeCount] = employee;\r\n        employees[employee] = true;\r\n        employeeCount++;\r\n\r\n        // broadcast event\r\n        EmployeeAdded(this, employee);\r\n\r\n        return employee;\r\n    }\r\n\r\n    /**\r\n   * @dev Add new CharityEvent to Organization\r\n   */\r\n    function addCharityEvent(string _name, uint _target, uint _payed, bytes1 _tags) public onlyAdmin returns(address) {\r\n        CharityEvent charityEvent = new CharityEvent(_name, _target, _payed, _tags);\r\n\r\n        // add charityEvent to charityEvents list\r\n        charityEventIndex[charityEventCount] = charityEvent;\r\n        charityEvents[charityEvent] = true;\r\n        charityEventCount++;\r\n\r\n        // broadcast event\r\n        CharityEventAdded(this, charityEvent);\r\n\r\n        return charityEvent;\r\n    }\r\n\r\n    function setIncomingDonation(string _realWorldIdentifier, uint _amount, string _note, bytes1 _tags) public onlyAdmin returns(address) {\r\n        address incomingDonation = addIncomingDonation(_realWorldIdentifier, _amount, _note, _tags);\r\n\r\n        token.mint(incomingDonation, _amount);\r\n    }\r\n\r\n    /**\r\n     * @dev Add new IncomingDonation to Organization\r\n     */\r\n    function addIncomingDonation(string _realWorldIdentifier, uint _amount, string _note, bytes1 _tags) internal returns(address) {\r\n\r\n        IncomingDonation incomingDonation = new IncomingDonation(token, _realWorldIdentifier, _note, _tags);\r\n\r\n        // add incomingDonation to incomingDonations list\r\n        incomingDonationIndex[incomingDonationCount] = incomingDonation;\r\n        incomingDonations[incomingDonation] = true;\r\n        incomingDonationCount++;\r\n\r\n        // broadcast event\r\n        IncomingDonationAdded(this, incomingDonation, msg.sender, _amount);\r\n\r\n        return incomingDonation;\r\n    }\r\n\r\n    function isAdmin() view external returns (bool) {\r\n        return(admins[msg.sender]);\r\n    }\r\n\r\n    /**\r\n     * @dev Add or revoke admin rights for address\r\n     */\r\n    function setAdmin(address admin, bool value) public onlyAdmin {\r\n        admins[admin] = value;\r\n    }\r\n\r\n\r\n    modifier onlyAdmin() {\r\n        require(admins[msg.sender]);\r\n        _;\r\n    }\r\n}\r\n",
  "sourcePath": "C:\\NodeJS\\gitHub\\oc_client\\contracts\\app\\Organization.sol",
  "compiler": {
    "name": "solc",
    "version": "0.4.19+commit.c4cbbb05.Emscripten.clang"
  },
  "schemaVersion": "1.0.1",
  "updatedAt": "2018-02-05T07:10:59.309Z"
}